:020000040000FA
:100000000A128A11EB2F83160313071687160800AE
:10001000831203135708FA005608F9007908A00064
:100020002007A03E840083130008A100840A000872
:10003000A2002108A3002208A4000030A41BFF3066
:10004000A500A6002308D2022408031C240F292897
:100050002A28D3022508031C250F2F283028D40274
:100060002608031C260F35283628D5027908A0005B
:100070002007A03E840077088000840A780880006A
:100080007708A0007808A1000030A11BFF30A20073
:10009000A3002008D207210803110318013E031909
:1000A0005228D307220803110318013E03195928C7
:1000B000D407230803110318013E03196028D5074C
:1000C0000B30F0000030F1007908013EF2007A08B0
:1000D0000318013E003EF3000A128A15BB260A12DD
:1000E0008A11710883120313D7007008D60078288C
:1000F0000800831203135708FA005608F90079081C
:10010000A0002007A03E840083130008A100840AF9
:100110000008A2002108A3002208A4000030A41BAC
:10012000FF30A500A6002308D2022408031C240FD8
:100130009A289B28D3022508031C250FA028A12854
:10014000D4022608031C260FA628A728D502790862
:10015000A0002007A03E840077088000840A780869
:1001600080007708A0007808A1000030A11BFF30B4
:10017000A200A3002008D207210803110318013EA2
:100180000319C328D307220803110318013E0319DA
:10019000CA28D407230803110318013E0319D128E4
:1001A000D5070B30F0000030F1007908013EF20075
:1001B0007A080318013E003EF3000A128A15BB2696
:1001C0000A128A11710883120313D7007008D6002F
:1001D000E928080083120313A101F71FF028F12872
:1001E000F928F609F709F60A0319F70AA101A10A85
:1001F000F928F91FFC28FD280729F809F909F80A48
:100200000319F90A0130FA007A08A1060729A201A8
:10021000A3017608770403190E290F294C29A001A0
:10022000A00A1E2901300310F60DF70DFF3E031D35
:1002300013290130FA007A08A0071E29F71F212987
:10024000222912292429242901300310A20DA30DEB
:10025000FF3E031D252977087902031D3129760801
:100260007802031C342935293D297608F8027708DD
:10027000031CF903F90222143D2901300310F70C85
:10028000F60CFF3E031D3E290130A002031D492943
:100290004A2924294C294C2921080319502951297C
:1002A0005729A209A309A20A0319A30A5729230857
:1002B000F7002208F6005C290800F20083120313FD
:1002C00008127208F00004300310F00CFF3E031D0A
:1002D00064290F307005F1000808F03971048800B6
:1002E000881272030319752976297D290230720656
:1002F000031D7B297C2987297D290D30F100FB30E6
:10030000F000F00B8129F10B812986298D294230DB
:10031000F000F00B892900008D2983120313881641
:10032000F0307205F00020307006031D98299929DD
:10033000B32908127208F00004300310F00CFF3EDD
:10034000031D9D290F307005F1000808F039710474
:10035000880088124230F000F00BAC2900008312B4
:1003600003138816B32908120F307205F00008082D
:10037000F03970048800881272030319C029C1295A
:10038000C82902307206031DC629C729D229C829E7
:100390000D30F100FB30F000F00BCC29F10BCC2933
:1003A000D129D8294230F000F00BD4290000D829F7
:1003B0008312031388160800FD00740883120313C8
:1003C000A000A1010C30A2002208F00074080A125B
:1003D0008A1540240A128A117D0783120313A30091
:1003E00023088400200883138000840A21088000E9
:1003F0000C30A0002008F00074080A128A1540246E
:100400000A128A117D0783120313A1002108063EF8
:100410008400750883138000840A760880000C30FD
:10042000A0002008F00074080A128A1540240A125D
:100430008A117D0783120313A1002108083E84005E
:10044000770883138000840A780880000C30A000AD
:100450002008F00074080A128A1540240A128A1132
:100460007D0783120313A1002108043E840079084C
:1004700083138000840A7A0880007B08A0000C3077
:10048000A1002108F00074080A128A1540240A12FB
:100490008A117D0783120313A20022080A3E8400FA
:1004A0002008831380007C08A0000C30A1002108E4
:1004B000F00074080A128A1540240A128A117D0776
:1004C00083120313A20022080B3E8400200883132A
:1004D0008000080083120313A8002808043E84004B
:1004E00083130008A400840A0008A5006430F60005
:1004F0000030F70028080A3E84000008FB00FC01D9
:100500007B08F0007C08F1002508F3002408F200C5
:100510000A128A150B250A128A117108F90070084F
:10052000F8000A128A11EA200A128A117608831248
:100530000313A4027708031CA503A5022808043EA0
:10054000840083130008A600840A0008A700643012
:10055000F6000030F70028080A3E84000008FB007F
:10056000FC017B08F0007C08F1002708F300260856
:10057000F2000A128A150B250A128A117108F90075
:100580007008F8000A128A11EA200A128A11760805
:1005900083120313A6070318A70A7708A7072808DA
:1005A000023E840083130008FB00840A0008FC005C
:1005B0002508803AFD007C08803A7D02031DE22A6E
:1005C0007B0824020318E52AE62A002B8312031372
:1005D0002808023E840083130008FB00840A0008F8
:1005E000FC007C08803AFD002708803A7D02031D4C
:1005F000FB2A26087B02031CFE2AFF2A042B002B61
:100600000130072B072B072B0030072B072B080087
:1006100083120313A8002808043E840083130008F3
:10062000A400840A0008A5006430F6000030F7003A
:1006300028080B3E84000008FB00FC017B08F0004A
:100640007C08F1002508F3002408F2000A128A153C
:100650000B250A128A117108F9007008F8000A12B5
:100660008A11EA200A128A11760883120313A4025F
:100670007708031CA503A5022808043E8400831301
:100680000008A600840A0008A7006430F6000030C5
:10069000F70028080B3E84000008FB00FC017B08E3
:1006A000F0007C08F1002708F3002608F2000A1287
:1006B0008A150B250A128A117108F9007008F800D2
:1006C0000A128A11EA200A128A1176088312031389
:1006D000A6070318A70A7708A7072808023E840080
:1006E00083130008FB00840A0008FC002508803AF8
:1006F000FD007C08803A7D02031D802B7B082402CC
:100700000318832B842B9E2B831203132808023E8D
:10071000840083130008FB00840A0008FC007C08A6
:10072000803AFD002708803A7D02031D992B260898
:100730007B02031C9C2B9D2BA22B9E2B0130A52BF7
:10074000A52BA52B0030A52BA52B08008312031386
:10075000A101F31FAC2BAD2BBA2BF009F109F20963
:10076000F309F00A0319F10A0319F20A0319F30A4B
:10077000A101A10AF71FBD2BBE2BCE2BF409F50951
:10078000F609F709F40A0319F50A0319F60A031919
:10079000F70A0130F8007808A106CE2B0030A5003A
:1007A0000030A4000030A3000030A20073087204DF
:1007B000710470040319DD2BDE2B312CA001A00A7B
:1007C000EF2B0130F8000310F00DF10DF20DF30DD9
:1007D000F80BE32B0130F8007808A007EF2BF31F8C
:1007E000F22BF32BE12BF52BF52B0130F800031046
:1007F000A20DA30DA40DA50DF80BF72B730877021E
:10080000031D0C2C72087602031D0C2C7108750256
:10081000031D0C2C70087402031C0F2C102C202CB0
:100820007008F4027108031C710FF5027208031CB2
:10083000720FF6027308031C730FF7022214202CA8
:1008400001300310F30CF20CF10CF00CFF3E031D11
:10085000212C0130A002031D2E2C2F2CF52B312C26
:10086000312C21080319352C362C422CA209A3095E
:10087000A409A509A20A0319A30A0319A40A0319C2
:10088000A50A422C2508F3002408F2002308F100F1
:100890002208F0004B2C080083120313C800C90182
:1008A000172D0C30A9002908F00049080A128A15F2
:1008B00040240A128A11831203134807AA002A0847
:1008C000063E840083130008AB00840A0008AC00D5
:1008D0000C30AD002D08F00049080A128A1540249A
:1008E0000A128A11831203134807AE002E088400EF
:1008F000831300080A128A1594250A128A117008B7
:10090000013E83120313AF0071080318013E003E3D
:10091000B0002F08B1003008B200B301B4013408B0
:10092000A3003308A2003208A1003108A0000C3057
:10093000B5003508F00049080A128A1540240A1249
:100940008A11831203134807B6003608083E840054
:1009500083130008B700840A0008B8000C30B900FF
:100960003908F00049080A128A1540240A128A112F
:10097000831203134807BA003A08063E8400831323
:100980000008BB00840A0008BC00BB09BC09BB0A04
:100990000319BC0A37083B07BD0038080318380A9A
:1009A0003C07BE003D08A4003E08A5000030A51B82
:1009B000FF30A600A7000A128A1522260A128A1101
:1009C000831203132008BF002108C0002208C100C1
:1009D0002308C2000A30C300420DC20CC10CC00C77
:1009E000BF0CC30BEC2C2B083F07C4002C080318CA
:1009F0002C0A4007C5000C30C6004608F000490824
:100A00000A128A1540240A128A1183120313480716
:100A1000C7004708023E8400440883138000840A0C
:100A2000450880000130A9002908C907172D2808AA
:100A30004902031C1C2D1D2D512C1E2D0800831254
:100A40000313AC00AA1B252D272D0130282D0030C3
:100A5000FB007B08AE002E0803192F2D302D362DFC
:100A6000A909AA09A90A0319AA0A362D2808FB0010
:100A70007B08F3002C080A128A152D240A128A1109
:100A8000103083120313AF002730B0000530FB0095
:100A90007B08AD007A2D831203133008F7002F086E
:100AA000F6002A08F9002908F8000A128A11EA203B
:100AB0000A128A1176087704031D5F2D602D942D8C
:100AC000013083120313AD02662D942D0A30F60017
:100AD0000030F7003008F9002F08F8000A128A11D8
:100AE000EA200A128A11770883120313B0007608ED
:100AF000AF007A2D3008803AFF0080307F02031D5E
:100B0000832D01302F020318862D872D4B2D942D18
:100B1000942D20300A128A1533250A128A110130C9
:100B200083120313AB02942D831203132D082E0797
:100B3000FB00FC01FC0D7C08803AFD0080307D024A
:100B4000031DA42D2B087B020318A72DA82DB22D61
:100B50000230831203132B020318AF2DB02D892D01
:100B6000B22DB22D831203132E080319B82DB92DFF
:100B7000C02D2D300A128A1533250A128A11C02D74
:100B8000831203133008F7002F08F6002A08F90033
:100B90002908F8000A128A11EA200A128A11760836
:100BA000303E0A128A1533250A128A118312031362
:100BB0003008F1002F08F0002A08F3002908F2009D
:100BC0000A128A15BB260A128A11710883120313AE
:100BD000AA007008A9000A30F6000030F7003008BB
:100BE000F9002F08F8000A128A11EA200A128A1165
:100BF000770883120313B0007608AF003008803AFC
:100C0000FF0080307F02031D072E01302F020318E2
:100C10000A2E0B2EC02D0C2E080000308312031359
:100C2000D0000030CF000030CE000130CD000A12DD
:100C30008A151C240A128A110A128A156E260A12B3
:100C40008A110A128A1511240A128A110A128A11AB
:100C500003200A128A11F4010030F500F600643016
:100C6000F7000030F8001930F9000030FA001430B5
:100C700083120313CA004A08FB002830CB004B083C
:100C8000FC00B6300A128A11DC210A128A11F40122
:100C9000F40A0030F500F6006430F7000030F80088
:100CA0001930F9000030FA00143083120313CA001F
:100CB0004A08FB002830CB004B08FC00B6300A1273
:100CC0008A11DC210A128A11023083120313CA002E
:100CD0004A08F4000030F500F6006430F7000030F8
:100CE000F8001930F9000030FA001430CB004B083E
:100CF000FB002830CC004C08FC00B6300A128A11E8
:100D0000DC210A128A11033083120313CA004A0835
:100D1000F4000030F500F6006430F7000030F80011
:100D20001930F9000030FA001430CB004B08FB00FA
:100D30002830CC004C08FC00B6300A128A11DC21A5
:100D40000A128A11213083120313CB007530CA00B6
:100D5000CA0BA82ECB0BA82EAD2EF60101308312A4
:100D60000313CA004A08F70000300A128A156125E9
:100D70000A128A11043083120313CA004A08A80019
:100D8000B6300A128A114C240A128A1183160313F0
:100D90003908F8003808F7000A128A151E270A12C7
:100DA0008A11831603134508F8004408F7000A1255
:100DB0008A158F270A128A11831603135108F80027
:100DC0005008F7000A128A1108200A128A118316A5
:100DD00003135D08F8005C08F7000A128A117920F5
:100DE0000A128A110E3083120313CA004A08A8009F
:100DF0005908AA005808A900AB01AB0A00300A1232
:100E00008A111F250A128A11FF3083120313CD079E
:100E1000FF30031CCE07FF30031CCF07FF30031C3D
:100E2000D00750084F044E044D04031D182F192FEE
:100E30008C2F0030D0000030CF000030CE00323098
:100E4000CD000830CA004A08A8000A128A158F246B
:100E50000A128A11831203132708AA002608A90080
:100E60000330CB004B08AB0001300A128A111F255A
:100E70000A128A11083083120313CA004A08A80014
:100E80000A128A15AE240A128A1183120313270844
:100E9000AA002608A9000330CB004B08AB000130A4
:100EA0000A128A111F250A128A11083083120313AD
:100EB000CA004A08A8000A128A15CD240A128A110B
:100EC000831203132708AA002608A9000330CB00C9
:100ED0004B08AB0001300A128A111F250A128A1131
:100EE000083083120313CA004A08A8000A128A15A0
:100EF000EC240A128A11831203132708AA00260879
:100F0000A9000330CB004B08AB0001300A128A1154
:100F10001F250A128A118C2F0A128A1574240A12AC
:100F20008A11003A0319952F962FA52F01308312AD
:100F30000313D8070318D90A0030D907033058051E
:100F4000D80000305905D900A52F0A128A15592456
:100F50000A128A11003A0319AE2FAF2FBE2FFF30AD
:100F600083120313D8070318D90AFF30D9070330B7
:100F70005805D80000305905D900BE2F831203133D
:100F8000D10104305102031CC62FC72FC92FA22E36
:100F9000A22E0C30CA004A08F00051080A128A1525
:100FA00040240A128A11B63E0A128A15D9250A125D
:100FB0008A11013083120313CA004A08D107043092
:100FC0005102031CE42FE52FC92FA22EA22EA22E20
:100FD0000A128A1100288313523084005C300A12EE
:100FE0008A1509240A128A11A0308400E6300A12F8
:100FF0008A1509240A128A1183010A128A110D2EF8
:1010000008308A000408840A8207003454346534A6
:101010006D3470342E342034533465346E3473346C
:0E1020006F3472343A342034203420340034DB
:1018120064008001840A04060319003404060A2CB9
:101822008312031306108610061183160313061083
:101832008610061108000F308316031788008312E2
:1018420003131F083F3940389F001F1483160313E8
:101852009F171F129F120800F5007508F40006304A
:101862000310F40DFF3E031D312C730874077F39FA
:10187200803E0A128A115D210A128A150800F300BD
:10188200F201432C731C462C472C4C2C7008F1009F
:101892007108F2074C2C0310F00D0310F30C7308BF
:1018A200031D542C552C432C562C7208582C08001E
:1018B200831203135A0803195F2C602C6C2C071A2D
:1018C200632C642C6C2C0030071A0130DA000130D2
:1018D200732C732C732C0030071A0130DA0000309D
:1018E200732C732C0800831203135B08031D7A2CDC
:1018F2007B2C872C871E7E2C7F2C872C0030871A0E
:101902000130DB0001308E2C8E2C8E2C0030871A99
:101912000130DB0000308E2C8E2C08000030F300EA
:101922000030F2000030F1000B30F000831203139C
:101932005508F7005408F6005308F5005208F40061
:101942000A128A11A6230A128A1571088312031336
:10195200A7007008A600AD2C08000030F30000308C
:10196200F2000030F1000B30F0008312031355082F
:10197200F7005408F6005308F5005208F4000A1262
:101982008A11A6230A128A15710883120313A7006B
:101992007008A600CC2C08000030F3000030F200E2
:1019A2000030F1000B30F000831203135508F700EA
:1019B2005408F6005308F5005208F4000A128A117E
:1019C200A6230A128A15710883120313A70070084E
:1019D200A600EB2C08000030F3000030F2000030CB
:1019E200F1000B30F000831203135508F70054087E
:1019F200F6005308F5005208F4000A128A11A623D1
:101A02000A128A15710883120313A7007008A60030
:101A12000A2D0800F401F5010E2D701C112D122D56
:101A2200182D7208F4070318F50A7308F507013038
:101A32000310F20DF30DFF3E031D192D01300310AB
:101A4200F10CF00CFF3E031D202D70087104031DE4
:101A52002B2D2C2D0E2D2D2D7508F1007408F00064
:101A6200322D0800F2008312031308167208F000E8
:101A720004300310F00CFF3E031D3A2D0F307005A9
:101A8200F1000808F0397104880088124230F00031
:101A9200F00B492D000083120313881608160F302D
:101AA2007205F0000808F03970048800881242308C
:101AB200F000F00B5A2D0000831203138816080061
:101AC200FA007608F8007808F9007608F800780835
:101AD200F3007A080A128A152D240A128A15862D15
:101AE200770884000A128A1500200A128A150A123F
:101AF2008A1533250A128A150130F8007808F7078B
:101B02000130F8007808F907862D770884000A1258
:101B12008A1500200A128A15003A031D912D922D72
:101B2200712D932D0800F800F601F70104307802B8
:101B3200031C9C2D9D2DA02DF401F501A82D7808E4
:101B4200F200F3017208F4007308F500A82D74087E
:101B5200F200F20DF20D831203131F087206C3394D
:101B620072069F009F14B52D9F18B82DB92DB52D63
:101B7200BA2D1E08F200F3017208F6007308F7008E
:101B820008300310F60DF70DFF3E031DC22D83161C
:101B920003131E08F200F3017208F6070318F70A8E
:101BA2007308F7077708F1007608F000D82D0800CF
:101BB20083120313A90029080A128A1108230A12A0
:101BC2008A15003A0319E62DE72DFA2D8312031325
:101BD20029080A128A116A220A128A15003A03197E
:101BE200F32DF42DFA2D8312031306108610061519
:101BF200212E8312031329080A128A116A220A1259
:101C02008A15003A0319062E072E1A2E8312031381
:101C120029080A128A1108230A128A15003A031D9A
:101C2200132E142E1A2E8312031306100611861475
:101C3200212E83120313061486100611212E212E43
:101C420008000030FD000030FC000030FB000030D6
:101C5200FA002B2E83120313201C302E312E492E14
:101C62002408FA07250803110318013E03193A2E26
:101C7200FB07260803110318013E0319412EFC0736
:101C8200270803110318013E0319482EFD07492EA8
:101C92000130F9000310A40DA50DA60DA70DF90B37
:101CA2004B2E01300310A30CA20CA10CA00CFF3E82
:101CB200031D532E2308220421042004031D622E37
:101CC200632E2B2E642E7D08A3007C08A2007B08C5
:101CD200A1007A08A0006D2E08000330F5008A30BA
:101CE200F4005530F300F30B742EF40B742EF50B45
:101CF200742E7B2E83160313081088100811881186
:101D020008128812081388130330F5008A30F40091
:101D12005530F300F30B8B2EF40B8B2EF50B8B2E21
:101D2200922E83120313881628300A128A115D211B
:101D32000A128A150C300A128A115D210A128A15BA
:101D420001300A128A115D210A128A1502300A1222
:101D52008A115D210A128A150330F5008A30F400D7
:101D62005530F300F30BB32EF40BB32EF50BB32E59
:101D7200BA2E0800F601F31FBF2EC02EC82EF2099C
:101D8200F309F20A0319F30AF601F60AC82EF11F43
:101D9200CB2ECC2ED22EF009F109F00A0319F10A4A
:101DA200D22E700871040319D72ED82E0D2FF501EB
:101DB200F50AE72E01300310F00DF10DFF3E031D71
:101DC200DC2E0130F4007408F507E72EF11FEA2E2D
:101DD200EB2EDB2EED2EED2E71087302031DF32E7A
:101DE20070087202031CF62EF72EFE2E7008F20205
:101DF2007108031CF303F302FE2E01300310F10CF1
:101E0200F00CFF3E031DFF2E0130F502031D0A2FC9
:101E12000B2FED2E0D2F0D2F76080319112F122FD8
:101E2200182FF209F309F20A0319F30A182F73089B
:101E3200F1007208F0001D2F0800831203135708E7
:101E4200FA005608F9007908A0002007A03E840095
:101E520083130008A100840A0008A2002108A3003D
:101E62002208A4000030A41BFF30A500A60023080E
:101E7200D2022408031C240F3F2F402FD30225082F
:101E8200031C250F452F462FD4022608031C260FBC
:101E92004B2F4C2FD5027908A0002007A03E8400CA
:101EA20077088000840A780880007708A000780804
:101EB200A1000030A11BFF30A200A3002008D2071E
:101EC200210803110318013E0319682FD3072208C2
:101ED20003110318013E03196F2FD40723080311BE
:101EE2000318013E0319762FD5070B30F00000309E
:101EF200F1007908013EF2007A080318013E003E23
:101F0200F3000A128A15BB260A128A157108831277
:101F12000313D7007008D6008E2F08008312031314
:101F22005708FA005608F9007908A0002007A03ED9
:101F3200840083130008A100840A0008A20021087B
:101F4200A3002208A4000030A41BFF30A500A600B5
:101F52002308D2022408031C240FB02FB12FD3026E
:101F62002508031C250FB62FB72FD4022608031C01
:101F7200260FBC2FBD2FD5027908A0002007A03E56
:101F8200840077088000840A780880007708A0001F
:101F92007808A1000030A11BFF30A200A300200896
:101FA200D207210803110318013E0319D92FD307C1
:101FB200220803110318013E0319E02FD407230856
:101FC20003110318013E0319E72FD5070B30F00068
:101FD2000030F1007908013EF2007A080318013E50
:101FE200003EF3000A128A15BB260A128A157108EE
:0E1FF20083120313D7007008D600FF2F0800DB
:04400E00D2E0FFFFFE
:00000001FF
