:100000000A128A11ED2F64008001840A0406031984
:10001000003404060428831203135108031D112819
:1000200012281E28871E152816281E280030871A19
:100030000130D10001302528252825280030871AD5
:100040000130D1000030252825280800FA00760864
:10005000F8007808F9007608F8007808F3007A08C4
:100060000A128A1591270A128A114B2877088400F0
:100070000A128A1500200A128A110A128A115920BE
:100080000A128A110130F8007808F7070130F800E9
:100090007808F9074B28770884000A128A1500208F
:1000A0000A128A11003A031D562857283628582864
:1000B0000800F2008312031308157208F0000430E0
:1000C0000310F00CFF3E031D60287008F10004309F
:1000D0000310F10DFF3E031D682808080F39710455
:1000E000880088114230F000F00B74280000831261
:1000F0000313881508157208F00004300310F00D82
:10010000FF3E031D7E2808080F39700488008811FF
:100110004230F000F00B8A28000083120313881588
:100120000800F800F601F70104307802031C992852
:100130009A289D28F401F501A5287808F200F3011A
:100140007208F4007308F500A5287408F200F20D97
:10015000F20D831203131F087206C33972069F0043
:100160009F14B2289F18B528B628B228B7281E08B1
:10017000F200F3017208F6007308F700083003106C
:10018000F60DF70DFF3E031DBF28831603131E084F
:10019000F200F3017208F6070318F70A7308F7076D
:1001A0007708F1007608F000D528080083120313C1
:1001B000A90029080A128A1148240A128A11003A51
:1001C0000319E328E428F7288312031329080A12E5
:1001D0008A11AA230A128A11003A0319F028F12879
:1001E000F728831203130710871007151E2983129F
:1001F000031329080A128A11AA230A128A11003A43
:1002000003190329042917298312031329080A1241
:100210008A1148240A128A11003A031D1029112953
:100220001729831203130710071187141E2983123D
:1002300003130714871007111E291E290800003018
:10024000FD000030FC000030FB000030FA002829DF
:1002500083120313201C2D292E2946292408FA076E
:10026000250803110318013E03193729FB07260847
:1002700003110318013E03193E29FC072708031147
:100280000318013E03194529FD0746290130F900ED
:100290000310A40DA50DA60DA70DF90B48290130DB
:1002A0000310A30CA20CA10CA00CFF3E031D5029AF
:1002B0002308220421042004031D5F296029282922
:1002C00061297D08A3007C08A2007B08A1007A08B0
:1002D000A0006A2908000330F5008A30F400553088
:1002E000F300F30B7129F40B7129F50B71297829AF
:1002F0008316031308148814081188110812881231
:10030000081388130330F5008A30F4005530F300E9
:10031000F30B8829F40B8829F50B88298F29831280
:100320000313881528300A128A118E220A128A11A4
:100330000C300A128A118E220A128A1101300A1216
:100340008A118E220A128A1102300A128A118E2212
:100350000A128A110330F5008A30F4005530F30098
:10036000F30BB029F40BB029F50BB029B72908001D
:10037000F601F31FBC29BD29C529F209F309F20AC8
:100380000319F30AF601F60AC529F11FC829C9297C
:10039000CF29F009F109F00A0319F10ACF297008F1
:1003A00071040319D429D5290A2AF501F50AE4298B
:1003B00001300310F00DF10DFF3E031DD92901306E
:1003C000F4007408F507E429F11FE729E829D82982
:1003D000EA29EA2971087302031DF02970087202E4
:1003E000031CF329F429FB297008F2027108031C8D
:1003F000F303F302FB2901300310F10CF00CFF3E74
:10040000031DFC290130F502031D072A082AEA29E9
:100410000A2A0A2A760803190E2A0F2A152AF2092F
:10042000F309F20A0319F30A152A7308F100720896
:10043000F0001A2A080083120313A101F71F212AD2
:10044000222A2A2AF609F709F60A0319F70AA1014E
:10045000A10A2A2AF91F2D2A2E2A382AF809F90971
:10046000F80A0319F90A0130FA007A08A106382AB5
:10047000A201A3017608770403193F2A402A7D2AA6
:10048000A001A00A4F2A01300310F60DF70DFF3E20
:10049000031D442A0130FA007A08A0074F2AF71FEB
:1004A000522A532A432A552A552A01300310A20DF5
:1004B000A30DFF3E031D562A77087902031D622A09
:1004C00076087802031C652A662A6E2A7608F802E6
:1004D0007708031CF903F90222146E2A0130031075
:1004E000F70CF60CFF3E031D6F2A0130A002031D1E
:1004F0007A2A7B2A552A7D2A7D2A21080319812AF6
:10050000822A882AA209A309A20A0319A30A882A0F
:100510002308F7002208F6008D2A0800F200831253
:10052000031308117208F00004300310F00CFF3EB2
:10053000031D952A7008F10004300310F10DFF3EF1
:10054000031D9D2A08080F39710488008811720361
:100550000319AB2AAC2AB32A02307206031DB12A52
:10056000B22ABD2AB32A0D30F100FB30F000F00BA7
:10057000B72AF10BB72ABC2AC32A4230F000F00B8D
:10058000BF2A0000C32A831203138815F0307205B6
:10059000F00020307006031DCE2ACF2AEE2A081163
:1005A0007208F00004300310F00CFF3E031DD32A44
:1005B0007008F10004300310F10DFF3E031DDB2A2B
:1005C00008080F397104880088114230F000F00BE0
:1005D000E72A0000831203138815EE2A0811720817
:1005E000F00004300310F00DFF3E031DF22A08084E
:1005F0000F3970048800881172030319002B012B36
:10060000082B02307206031D062B072B122B082B1A
:100610000D30F100FB30F000F00B0C2BF10B0C2B2C
:10062000112B182B4230F000F00B142B0000182B6C
:100630008312031388150800FD0074088312031346
:10064000A000A1010C30A2002208F00074080A12D8
:100650008A15A4270A128A117D0783120313A300A7
:1006600023088400200883138000840A2108800066
:100670000C30A0002008F00074080A128A15A42784
:100680000A128A117D0783120313A1002108063E76
:100690008400750883138000840A760880000C307B
:1006A000A0002008F00074080A128A15A4270A1274
:1006B0008A117D0783120313A1002108083E8400DC
:1006C000770883138000840A780880000C30A0002B
:1006D0002008F00074080A128A15A4270A128A1149
:1006E0007D0783120313A1002108043E84007908CA
:1006F00083138000840A7A0880007B08A0000C30F5
:10070000A1002108F00074080A128A15A4270A1211
:100710008A117D0783120313A20022080A3E840077
:100720002008831380007C08A0000C30A100210861
:10073000F00074080A128A15A4270A128A117D078C
:1007400083120313A20022080B3E840020088313A7
:100750008000080083120313A8002808043E8400C8
:1007600083130008A400840A0008A5006430F60082
:100770000030F70028080A3E84000008FB00FC0156
:100780007B08F0007C08F1002508F3002408F20043
:100790000A128A15D8270A128A117108F9007008FE
:1007A000F8000A128A111B220A128A117608831293
:1007B0000313A4027708031CA503A5022808043E1E
:1007C000840083130008A600840A0008A700643090
:1007D000F6000030F70028080A3E84000008FB00FD
:1007E000FC017B08F0007C08F1002708F3002608D4
:1007F000F2000A128A15D8270A128A117108F90024
:100800007008F8000A128A111B220A128A1176084F
:1008100083120313A6070318A70A7708A707280857
:10082000023E840083130008FB00840A0008FC00D9
:100830002508803AFD007C08803A7D02031D222CA9
:100840007B0824020318252C262C402C831203132A
:100850002808023E840083130008FB00840A000875
:10086000FC007C08803AFD002708803A7D02031DC9
:100870003B2C26087B02031C3E2C3F2C442C402C96
:100880000130472C472C472C0030472C472C0800C0
:1008900083120313A8002808043E84008313000871
:1008A000A400840A0008A5006430F6000030F700B8
:1008B00028080B3E84000008FB00FC017B08F000C8
:1008C0007C08F1002508F3002408F2000A128A15BA
:1008D000D8270A128A117108F9007008F8000A1264
:1008E0008A111B220A128A11760883120313A402AA
:1008F0007708031CA503A5022808043E840083137F
:100900000008A600840A0008A7006430F600003042
:10091000F70028080B3E84000008FB00FC017B0860
:10092000F0007C08F1002708F3002608F2000A1204
:100930008A15D8270A128A117108F9007008F80080
:100940000A128A111B220A128A11760883120313D3
:10095000A6070318A70A7708A7072808023E8400FD
:1009600083130008FB00840A0008FC002508803A75
:10097000FD007C08803A7D02031DC02C7B08240208
:100980000318C32CC42CDE2C831203132808023E48
:10099000840083130008FB00840A0008FC007C0824
:1009A000803AFD002708803A7D02031DD92C2608D5
:1009B0007B02031CDC2CDD2CE22CDE2C0130E52C30
:1009C000E52CE52C0030E52CE52C08008312031300
:1009D000C800C901B12D0C30A9002908F000490850
:1009E0000A128A15A4270A128A11831203134807D0
:1009F000AA002A08063E840083130008AB00840A7C
:100A00000008AC000C30AD002D08F00049080A12B7
:100A10008A15A4270A128A11831203134807AE000D
:100A20002E088400831300080A128A1191200A12EA
:100A30008A117008013E83120313AF007108031876
:100A4000013E003EB0002F08B1003008B200B301F3
:100A5000B4013408A3003308A2003208A100310811
:100A6000A0000C30B5003508F00049080A128A15BC
:100A7000A4270A128A11831203134807B600360806
:100A8000083E840083130008B700840A0008B800F9
:100A90000C30B9003908F00049080A128A15A42759
:100AA0000A128A11831203134807BA003A08063E55
:100AB000840083130008BB00840A0008BC00BB0943
:100AC000BC09BB0A0319BC0A37083B07BD0038083C
:100AD0000318380A3C07BE003D08A4003E08A500E4
:100AE0000030A51BFF30A600A7000A128A111F21A3
:100AF0000A128A11831203132008BF002108C000C4
:100B00002208C1002308C2000A30C300420DC20CF3
:100B1000C10CC00CBF0CC30B862D2B083F07C400B3
:100B20002C0803182C0A4007C5000C30C6004608E4
:100B3000F00049080A128A15A4270A128A118312A2
:100B400003134807C7004708023E84004408831384
:100B50008000840A450880000130A9002908C907DF
:100B6000B12D28084902031CB62DB72DEB2CB82D4A
:100B7000080083120313A800A61BBF2DC12D01304E
:100B8000C22D0030FB007B08AA002A080319C92DDA
:100B9000CA2DD02DA509A609A50A0319A60AD02D8C
:100BA0002408FB007B08F30028080A128A15912705
:100BB0000A128A11103083120313AB002730AC00E5
:100BC0000530FB007B08A900142E831203132C08A8
:100BD000F7002B08F6002608F9002508F8000A128D
:100BE0008A111B220A128A1176087704031DF92D37
:100BF000FA2D2E2E013083120313A902002E2E2E61
:100C00000A30F6000030F7002C08F9002B08F80035
:100C10000A128A111B220A128A11770883120313FF
:100C2000AC007608AB00142E2C08803AFF00803010
:100C30007F02031D1D2E01302B020318202E212EB2
:100C4000E52D2E2E2E2E20300A128A1159200A123E
:100C50008A11013083120313A7022E2E831203136D
:100C600029082A07FB00FC01FC0D7C08803AFD00E6
:100C700080307D02031D3E2E27087B020318412E83
:100C8000422E4C2E02308312031327020318492EE2
:100C90004A2E232E4C2E4C2E831203132A0803199E
:100CA000522E532E5A2E2D300A128A1159200A1212
:100CB0008A115A2E831203132C08F7002B08F60012
:100CC0002608F9002508F8000A128A111B220A12C8
:100CD0008A117608303E0A128A1159200A128A11A6
:100CE000831203132C08F1002B08F0002608F300F0
:100CF0002508F2000A128A11B8210A128A11710815
:100D000083120313A6007008A5000A30F600003015
:100D1000F7002C08F9002B08F8000A128A111B2290
:100D20000A128A11770883120313AC007608AB000D
:100D30002C08803AFF0080307F02031DA12E013075
:100D40002B020318A42EA52E5A2EA62E08000A1236
:100D50008A1580270A128A110A128A116B210A1237
:100D60008A110A128A1575270A128A110A128A151F
:100D700070270A128A11F4010030F500F600643081
:100D8000F7000030F8001930F9000030FA00143094
:100D900083120313CA004A08FB002830CB004B081B
:100DA000FC00A0300A128A111C230A128A11F401D5
:100DB000F40A0030F500F6006430F7000030F80067
:100DC0001930F9000030FA00143083120313CA00FE
:100DD0004A08FB002830CB004B08FC00A0300A1268
:100DE0008A111C230A128A11023083120313CA00CB
:100DF0004A08F4000030F500F6006430F7000030D7
:100E0000F8001930F9000030FA001430CB004B081C
:100E1000FB002830CC004C08FC00A0300A128A11DC
:100E20001C230A128A11033083120313CA004A08D2
:100E3000F4000030F500F6006430F7000030F800F0
:100E40001930F9000030FA001430CB004B08FB00D9
:100E50002830CC004C08FC00A0300A128A111C2358
:100E60000A128A11332F213083120313CB007530FD
:100E7000CA00CA0B392FCB0B392F3E2FF601013098
:100E800083120313CA004A08F70000300A128A11BD
:100E900026200A128A11043083120313CA004A085A
:100EA000A800A0300A128A11E6240A128A110E3014
:100EB00083120313CA004A08A4004F08A6004E0874
:100EC000A500A701A70A00300A128A11B9250A1243
:100ED0008A11083083120313CA004A08A4000C3098
:100EE000CB004B08F0004E080A128A15A4270A12FC
:100EF0008A11023EA03E840083130008831203136C
:100F0000A500840A0008A6000330CC004C08A70006
:100F100001300A128A11B9250A128A110A128A119D
:100F20000B200A128A11003A0319972F982FA72F26
:100F3000013083120313CE070318CF0A0030CF0706
:100F400003304E05CE0000304F05CF00A72F0A1208
:100F50008A15BD270A128A11003A0319B02FB12F42
:100F6000C02FFF3083120313CE070318CF0AFF30C0
:100F7000CF0703304E05CE0000304F05CF00C02F05
:100F800083120313CD0104304D02031CC82FC92F57
:100F9000CB2F332F332F0C30CA004A08F0004D08F6
:100FA0000A128A15A4270A128A11A03E0A128A116F
:100FB000D6200A128A11013083120313CA004A088C
:100FC000CD0704304D02031CE62FE72FCB2F332F24
:100FD000332F332F0A128A11002883120313CE01F4
:100FE000CF01D001D1018313A0308400D0300A1288
:100FF0008A1103200A128A1183010A128A11A72E6C
:1010000008308A000408840A8207003454346534A6
:101010006D3470342E342034533465346E3473346C
:0E1020006F3472343A342034203420340034DB
:101EE00083160313071687160800831203130710BF
:101EF00087100711831603130710871007110800B6
:101F00000F30831603178800831203131F083F390D
:101F100040389F001F14831603139F171F129F1230
:101F20000800F5007508F40006300310F40DFF3EBC
:101F3000031D952F730874077F39803E0A128A119A
:101F40008E220A128A150800F300F201A72F731CD3
:101F5000AA2FAB2FB02F7008F1007108F207B02F35
:101F60000310F00D0310F30C7308031DB82FB92FE5
:101F7000A72FBA2F7208BC2F080083120313500832
:101F80000319C32FC42FD02F071AC72FC82FD02F44
:101F90000030071A0130D0000130D72FD72FD72FAC
:101FA0000030071A0130D0000030D72FD72F08009B
:101FB000F401F501DB2F701CDE2FDF2FE52F7208F7
:101FC000F4070318F50A7308F50701300310F20D42
:101FD000F30DFF3E031DE62F01300310F10CF00C52
:101FE000FF3E031DED2F70087104031DF82FF92F1C
:101FF000DB2FFA2F7508F1007408F000FF2F08009E
:04400E00D2E0FFFFFE
:00000001FF
